{
  "contractName": "Color",
  "abi": [
    {
      "inputs": [],
      "payable": false,
      "stateMutability": "nonpayable",
      "type": "constructor"
    },
    {
      "anonymous": false,
      "inputs": [
        {
          "indexed": true,
          "internalType": "address",
          "name": "owner",
          "type": "address"
        },
        {
          "indexed": true,
          "internalType": "address",
          "name": "approved",
          "type": "address"
        },
        {
          "indexed": true,
          "internalType": "uint256",
          "name": "tokenId",
          "type": "uint256"
        }
      ],
      "name": "Approval",
      "type": "event"
    },
    {
      "anonymous": false,
      "inputs": [
        {
          "indexed": true,
          "internalType": "address",
          "name": "owner",
          "type": "address"
        },
        {
          "indexed": true,
          "internalType": "address",
          "name": "operator",
          "type": "address"
        },
        {
          "indexed": false,
          "internalType": "bool",
          "name": "approved",
          "type": "bool"
        }
      ],
      "name": "ApprovalForAll",
      "type": "event"
    },
    {
      "anonymous": false,
      "inputs": [
        {
          "indexed": true,
          "internalType": "address",
          "name": "from",
          "type": "address"
        },
        {
          "indexed": true,
          "internalType": "address",
          "name": "to",
          "type": "address"
        },
        {
          "indexed": true,
          "internalType": "uint256",
          "name": "tokenId",
          "type": "uint256"
        }
      ],
      "name": "Transfer",
      "type": "event"
    },
    {
      "constant": false,
      "inputs": [
        {
          "internalType": "address",
          "name": "to",
          "type": "address"
        },
        {
          "internalType": "uint256",
          "name": "tokenId",
          "type": "uint256"
        }
      ],
      "name": "approve",
      "outputs": [],
      "payable": false,
      "stateMutability": "nonpayable",
      "type": "function"
    },
    {
      "constant": true,
      "inputs": [
        {
          "internalType": "address",
          "name": "owner",
          "type": "address"
        }
      ],
      "name": "balanceOf",
      "outputs": [
        {
          "internalType": "uint256",
          "name": "",
          "type": "uint256"
        }
      ],
      "payable": false,
      "stateMutability": "view",
      "type": "function"
    },
    {
      "constant": true,
      "inputs": [
        {
          "internalType": "uint256",
          "name": "",
          "type": "uint256"
        }
      ],
      "name": "colors",
      "outputs": [
        {
          "internalType": "string",
          "name": "",
          "type": "string"
        }
      ],
      "payable": false,
      "stateMutability": "view",
      "type": "function"
    },
    {
      "constant": true,
      "inputs": [
        {
          "internalType": "uint256",
          "name": "tokenId",
          "type": "uint256"
        }
      ],
      "name": "getApproved",
      "outputs": [
        {
          "internalType": "address",
          "name": "",
          "type": "address"
        }
      ],
      "payable": false,
      "stateMutability": "view",
      "type": "function"
    },
    {
      "constant": true,
      "inputs": [
        {
          "internalType": "address",
          "name": "owner",
          "type": "address"
        },
        {
          "internalType": "address",
          "name": "operator",
          "type": "address"
        }
      ],
      "name": "isApprovedForAll",
      "outputs": [
        {
          "internalType": "bool",
          "name": "",
          "type": "bool"
        }
      ],
      "payable": false,
      "stateMutability": "view",
      "type": "function"
    },
    {
      "constant": true,
      "inputs": [],
      "name": "name",
      "outputs": [
        {
          "internalType": "string",
          "name": "",
          "type": "string"
        }
      ],
      "payable": false,
      "stateMutability": "view",
      "type": "function"
    },
    {
      "constant": true,
      "inputs": [
        {
          "internalType": "string",
          "name": "",
          "type": "string"
        }
      ],
      "name": "nftExists",
      "outputs": [
        {
          "internalType": "bool",
          "name": "",
          "type": "bool"
        }
      ],
      "payable": false,
      "stateMutability": "view",
      "type": "function"
    },
    {
      "constant": true,
      "inputs": [
        {
          "internalType": "uint256",
          "name": "",
          "type": "uint256"
        }
      ],
      "name": "nftMetadata",
      "outputs": [
        {
          "internalType": "string",
          "name": "name",
          "type": "string"
        },
        {
          "internalType": "string",
          "name": "hashed_name",
          "type": "string"
        },
        {
          "internalType": "string",
          "name": "description",
          "type": "string"
        },
        {
          "internalType": "string",
          "name": "link",
          "type": "string"
        }
      ],
      "payable": false,
      "stateMutability": "view",
      "type": "function"
    },
    {
      "constant": true,
      "inputs": [
        {
          "internalType": "uint256",
          "name": "tokenId",
          "type": "uint256"
        }
      ],
      "name": "ownerOf",
      "outputs": [
        {
          "internalType": "address",
          "name": "",
          "type": "address"
        }
      ],
      "payable": false,
      "stateMutability": "view",
      "type": "function"
    },
    {
      "constant": false,
      "inputs": [
        {
          "internalType": "address",
          "name": "from",
          "type": "address"
        },
        {
          "internalType": "address",
          "name": "to",
          "type": "address"
        },
        {
          "internalType": "uint256",
          "name": "tokenId",
          "type": "uint256"
        }
      ],
      "name": "safeTransferFrom",
      "outputs": [],
      "payable": false,
      "stateMutability": "nonpayable",
      "type": "function"
    },
    {
      "constant": false,
      "inputs": [
        {
          "internalType": "address",
          "name": "from",
          "type": "address"
        },
        {
          "internalType": "address",
          "name": "to",
          "type": "address"
        },
        {
          "internalType": "uint256",
          "name": "tokenId",
          "type": "uint256"
        },
        {
          "internalType": "bytes",
          "name": "_data",
          "type": "bytes"
        }
      ],
      "name": "safeTransferFrom",
      "outputs": [],
      "payable": false,
      "stateMutability": "nonpayable",
      "type": "function"
    },
    {
      "constant": false,
      "inputs": [
        {
          "internalType": "address",
          "name": "to",
          "type": "address"
        },
        {
          "internalType": "bool",
          "name": "approved",
          "type": "bool"
        }
      ],
      "name": "setApprovalForAll",
      "outputs": [],
      "payable": false,
      "stateMutability": "nonpayable",
      "type": "function"
    },
    {
      "constant": true,
      "inputs": [
        {
          "internalType": "bytes4",
          "name": "interfaceId",
          "type": "bytes4"
        }
      ],
      "name": "supportsInterface",
      "outputs": [
        {
          "internalType": "bool",
          "name": "",
          "type": "bool"
        }
      ],
      "payable": false,
      "stateMutability": "view",
      "type": "function"
    },
    {
      "constant": true,
      "inputs": [],
      "name": "symbol",
      "outputs": [
        {
          "internalType": "string",
          "name": "",
          "type": "string"
        }
      ],
      "payable": false,
      "stateMutability": "view",
      "type": "function"
    },
    {
      "constant": true,
      "inputs": [
        {
          "internalType": "uint256",
          "name": "index",
          "type": "uint256"
        }
      ],
      "name": "tokenByIndex",
      "outputs": [
        {
          "internalType": "uint256",
          "name": "",
          "type": "uint256"
        }
      ],
      "payable": false,
      "stateMutability": "view",
      "type": "function"
    },
    {
      "constant": true,
      "inputs": [
        {
          "internalType": "address",
          "name": "owner",
          "type": "address"
        },
        {
          "internalType": "uint256",
          "name": "index",
          "type": "uint256"
        }
      ],
      "name": "tokenOfOwnerByIndex",
      "outputs": [
        {
          "internalType": "uint256",
          "name": "",
          "type": "uint256"
        }
      ],
      "payable": false,
      "stateMutability": "view",
      "type": "function"
    },
    {
      "constant": true,
      "inputs": [
        {
          "internalType": "uint256",
          "name": "tokenId",
          "type": "uint256"
        }
      ],
      "name": "tokenURI",
      "outputs": [
        {
          "internalType": "string",
          "name": "",
          "type": "string"
        }
      ],
      "payable": false,
      "stateMutability": "view",
      "type": "function"
    },
    {
      "constant": true,
      "inputs": [],
      "name": "totalSupply",
      "outputs": [
        {
          "internalType": "uint256",
          "name": "",
          "type": "uint256"
        }
      ],
      "payable": false,
      "stateMutability": "view",
      "type": "function"
    },
    {
      "constant": false,
      "inputs": [
        {
          "internalType": "address",
          "name": "from",
          "type": "address"
        },
        {
          "internalType": "address",
          "name": "to",
          "type": "address"
        },
        {
          "internalType": "uint256",
          "name": "tokenId",
          "type": "uint256"
        }
      ],
      "name": "transferFrom",
      "outputs": [],
      "payable": false,
      "stateMutability": "nonpayable",
      "type": "function"
    },
    {
      "constant": true,
      "inputs": [
        {
          "internalType": "address",
          "name": "",
          "type": "address"
        }
      ],
      "name": "userInfo",
      "outputs": [
        {
          "internalType": "string",
          "name": "name",
          "type": "string"
        },
        {
          "internalType": "string",
          "name": "description",
          "type": "string"
        },
        {
          "internalType": "address",
          "name": "addr",
          "type": "address"
        },
        {
          "internalType": "string",
          "name": "usn",
          "type": "string"
        }
      ],
      "payable": false,
      "stateMutability": "view",
      "type": "function"
    },
    {
      "constant": false,
      "inputs": [
        {
          "internalType": "string",
          "name": "_color",
          "type": "string"
        },
        {
          "internalType": "string",
          "name": "_hash",
          "type": "string"
        },
        {
          "internalType": "string",
          "name": "description",
          "type": "string"
        },
        {
          "internalType": "string",
          "name": "link",
          "type": "string"
        }
      ],
      "name": "mint",
      "outputs": [],
      "payable": false,
      "stateMutability": "nonpayable",
      "type": "function"
    },
    {
      "constant": true,
      "inputs": [],
      "name": "getContractOwner",
      "outputs": [
        {
          "internalType": "address",
          "name": "",
          "type": "address"
        }
      ],
      "payable": false,
      "stateMutability": "view",
      "type": "function"
    },
    {
      "constant": false,
      "inputs": [
        {
          "internalType": "string",
          "name": "name",
          "type": "string"
        },
        {
          "internalType": "string",
          "name": "description",
          "type": "string"
        },
        {
          "internalType": "string",
          "name": "usn",
          "type": "string"
        }
      ],
      "name": "registerUser",
      "outputs": [],
      "payable": false,
      "stateMutability": "nonpayable",
      "type": "function"
    },
    {
      "constant": false,
      "inputs": [
        {
          "internalType": "address",
          "name": "_to",
          "type": "address"
        },
        {
          "internalType": "uint256",
          "name": "_tokenId",
          "type": "uint256"
        }
      ],
      "name": "sendToken",
      "outputs": [],
      "payable": false,
      "stateMutability": "nonpayable",
      "type": "function"
    },
    {
      "constant": true,
      "inputs": [
        {
          "internalType": "uint256",
          "name": "_tokenId",
          "type": "uint256"
        }
      ],
      "name": "getOwnerData",
      "outputs": [
        {
          "internalType": "string",
          "name": "",
          "type": "string"
        }
      ],
      "payable": false,
      "stateMutability": "view",
      "type": "function"
    }
  ],
  "bytecode": "0x60806040523480156200001157600080fd5b506040518060400160405280600581526020017f436f6c6f720000000000000000000000000000000000000000000000000000008152506040518060400160405280600581526020017f434f4c4f520000000000000000000000000000000000000000000000000000008152508181620000986301ffc9a760e01b6200031960201b60201c565b620000b06380ac58cd60e01b6200031960201b60201c565b620000c863780e9d6360e01b6200031960201b60201c565b8160099080519060200190620000e092919062000422565b5080600a9080519060200190620000f992919062000422565b5062000112635b5e139f60e01b6200031960201b60201c565b5050505033601160006101000a81548173ffffffffffffffffffffffffffffffffffffffff021916908373ffffffffffffffffffffffffffffffffffffffff16021790555060405180608001604052806040518060400160405280600881526020017f436f6e747261637400000000000000000000000000000000000000000000000081525081526020016040518060400160405280601581526020017f436f6e7472616374206f6620746869732044617070000000000000000000000081525081526020013073ffffffffffffffffffffffffffffffffffffffff1681526020016040518060400160405280600381526020017f3078300000000000000000000000000000000000000000000000000000000000815250815250600c60003073ffffffffffffffffffffffffffffffffffffffff1673ffffffffffffffffffffffffffffffffffffffff16815260200190815260200160002060008201518160000190805190602001906200028a929190620004a9565b506020820151816001019080519060200190620002a9929190620004a9565b5060408201518160020160006101000a81548173ffffffffffffffffffffffffffffffffffffffff021916908373ffffffffffffffffffffffffffffffffffffffff16021790555060608201518160030190805190602001906200030f929190620004a9565b5090505062000558565b63ffffffff60e01b817bffffffffffffffffffffffffffffffffffffffffffffffffffffffff19161415620003b6576040517f08c379a000000000000000000000000000000000000000000000000000000000815260040180806020018281038252601c8152602001807f4552433136353a20696e76616c696420696e746572666163652069640000000081525060200191505060405180910390fd5b6001600080837bffffffffffffffffffffffffffffffffffffffffffffffffffffffff19167bffffffffffffffffffffffffffffffffffffffffffffffffffffffff1916815260200190815260200160002060006101000a81548160ff02191690831515021790555050565b828054600181600116156101000203166002900490600052602060002090601f016020900481019282601f106200046557805160ff191683800117855562000496565b8280016001018555821562000496579182015b828111156200049557825182559160200191906001019062000478565b5b509050620004a5919062000530565b5090565b828054600181600116156101000203166002900490600052602060002090601f016020900481019282601f10620004ec57805160ff19168380011785556200051d565b828001600101855582156200051d579182015b828111156200051c578251825591602001919060010190620004ff565b5b5090506200052c919062000530565b5090565b6200055591905b808211156200055157600081600090555060010162000537565b5090565b90565b61399f80620005686000396000f3fe608060405234801561001057600080fd5b50600436106101735760003560e01c806349541015116100de57806395d89b4111610097578063bd11f69d11610071578063bd11f69d14610f9d578063c87b56dd14611044578063d637dcfa146110eb578063e985e9c5146112d457610173565b806395d89b4114610dc5578063a22cb46514610e48578063b88d4fde14610e9857610173565b806349541015146109585780634f6ccce714610b435780636352211e14610b8557806365c4b8fd14610bf357806370a0823114610cc657806395c671d814610d1e57610173565b80631959a002116101305780631959a002146105ba57806323b872dd146107825780632f745c59146107f0578063412664ae1461085257806342842e0e146108a0578063442890d51461090e57610173565b806301ffc9a71461017857806302341c71146101dd57806306fdde031461045d578063081812fc146104e0578063095ea7b31461054e57806318160ddd1461059c575b600080fd5b6101c36004803603602081101561018e57600080fd5b8101908080357bffffffffffffffffffffffffffffffffffffffffffffffffffffffff19169060200190929190505050611350565b604051808215151515815260200191505060405180910390f35b61045b600480360360808110156101f357600080fd5b810190808035906020019064010000000081111561021057600080fd5b82018360208201111561022257600080fd5b8035906020019184600183028401116401000000008311171561024457600080fd5b91908080601f016020809104026020016040519081016040528093929190818152602001838380828437600081840152601f19601f820116905080830192505050505050509192919290803590602001906401000000008111156102a757600080fd5b8201836020820111156102b957600080fd5b803590602001918460018302840111640100000000831117156102db57600080fd5b91908080601f016020809104026020016040519081016040528093929190818152602001838380828437600081840152601f19601f8201169050808301925050505050505091929192908035906020019064010000000081111561033e57600080fd5b82018360208201111561035057600080fd5b8035906020019184600183028401116401000000008311171561037257600080fd5b91908080601f016020809104026020016040519081016040528093929190818152602001838380828437600081840152601f19601f820116905080830192505050505050509192919290803590602001906401000000008111156103d557600080fd5b8201836020820111156103e757600080fd5b8035906020019184600183028401116401000000008311171561040957600080fd5b91908080601f016020809104026020016040519081016040528093929190818152602001838380828437600081840152601f19601f8201169050808301925050505050505091929192905050506113b7565b005b6104656116ca565b6040518080602001828103825283818151815260200191508051906020019080838360005b838110156104a557808201518184015260208101905061048a565b50505050905090810190601f1680156104d25780820380516001836020036101000a031916815260200191505b509250505060405180910390f35b61050c600480360360208110156104f657600080fd5b810190808035906020019092919050505061176c565b604051808273ffffffffffffffffffffffffffffffffffffffff1673ffffffffffffffffffffffffffffffffffffffff16815260200191505060405180910390f35b61059a6004803603604081101561056457600080fd5b81019080803573ffffffffffffffffffffffffffffffffffffffff16906020019092919080359060200190929190505050611807565b005b6105a46119e0565b6040518082815260200191505060405180910390f35b6105fc600480360360208110156105d057600080fd5b81019080803573ffffffffffffffffffffffffffffffffffffffff1690602001909291905050506119ed565b6040518080602001806020018573ffffffffffffffffffffffffffffffffffffffff1673ffffffffffffffffffffffffffffffffffffffff16815260200180602001848103845288818151815260200191508051906020019080838360005b8381101561067657808201518184015260208101905061065b565b50505050905090810190601f1680156106a35780820380516001836020036101000a031916815260200191505b50848103835287818151815260200191508051906020019080838360005b838110156106dc5780820151818401526020810190506106c1565b50505050905090810190601f1680156107095780820380516001836020036101000a031916815260200191505b50848103825285818151815260200191508051906020019080838360005b83811015610742578082015181840152602081019050610727565b50505050905090810190601f16801561076f5780820380516001836020036101000a031916815260200191505b5097505050505050505060405180910390f35b6107ee6004803603606081101561079857600080fd5b81019080803573ffffffffffffffffffffffffffffffffffffffff169060200190929190803573ffffffffffffffffffffffffffffffffffffffff16906020019092919080359060200190929190505050611c05565b005b61083c6004803603604081101561080657600080fd5b81019080803573ffffffffffffffffffffffffffffffffffffffff16906020019092919080359060200190929190505050611c74565b6040518082815260200191505060405180910390f35b61089e6004803603604081101561086857600080fd5b81019080803573ffffffffffffffffffffffffffffffffffffffff16906020019092919080359060200190929190505050611d33565b005b61090c600480360360608110156108b657600080fd5b81019080803573ffffffffffffffffffffffffffffffffffffffff169060200190929190803573ffffffffffffffffffffffffffffffffffffffff16906020019092919080359060200190929190505050611d42565b005b610916611d62565b604051808273ffffffffffffffffffffffffffffffffffffffff1673ffffffffffffffffffffffffffffffffffffffff16815260200191505060405180910390f35b6109846004803603602081101561096e57600080fd5b8101908080359060200190929190505050611d8c565b6040518080602001806020018060200180602001858103855289818151815260200191508051906020019080838360005b838110156109d05780820151818401526020810190506109b5565b50505050905090810190601f1680156109fd5780820380516001836020036101000a031916815260200191505b50858103845288818151815260200191508051906020019080838360005b83811015610a36578082015181840152602081019050610a1b565b50505050905090810190601f168015610a635780820380516001836020036101000a031916815260200191505b50858103835287818151815260200191508051906020019080838360005b83811015610a9c578082015181840152602081019050610a81565b50505050905090810190601f168015610ac95780820380516001836020036101000a031916815260200191505b50858103825286818151815260200191508051906020019080838360005b83811015610b02578082015181840152602081019050610ae7565b50505050905090810190601f168015610b2f5780820380516001836020036101000a031916815260200191505b509850505050505050505060405180910390f35b610b6f60048036036020811015610b5957600080fd5b810190808035906020019092919050505061201c565b6040518082815260200191505060405180910390f35b610bb160048036036020811015610b9b57600080fd5b810190808035906020019092919050505061209c565b604051808273ffffffffffffffffffffffffffffffffffffffff1673ffffffffffffffffffffffffffffffffffffffff16815260200191505060405180910390f35b610cac60048036036020811015610c0957600080fd5b8101908080359060200190640100000000811115610c2657600080fd5b820183602082011115610c3857600080fd5b80359060200191846001830284011164010000000083111715610c5a57600080fd5b91908080601f016020809104026020016040519081016040528093929190818152602001838380828437600081840152601f19601f820116905080830192505050505050509192919290505050612164565b604051808215151515815260200191505060405180910390f35b610d0860048036036020811015610cdc57600080fd5b81019080803573ffffffffffffffffffffffffffffffffffffffff16906020019092919050505061219a565b6040518082815260200191505060405180910390f35b610d4a60048036036020811015610d3457600080fd5b810190808035906020019092919050505061226f565b6040518080602001828103825283818151815260200191508051906020019080838360005b83811015610d8a578082015181840152602081019050610d6f565b50505050905090810190601f168015610db75780820380516001836020036101000a031916815260200191505b509250505060405180910390f35b610dcd612361565b6040518080602001828103825283818151815260200191508051906020019080838360005b83811015610e0d578082015181840152602081019050610df2565b50505050905090810190601f168015610e3a5780820380516001836020036101000a031916815260200191505b509250505060405180910390f35b610e9660048036036040811015610e5e57600080fd5b81019080803573ffffffffffffffffffffffffffffffffffffffff169060200190929190803515159060200190929190505050612403565b005b610f9b60048036036080811015610eae57600080fd5b81019080803573ffffffffffffffffffffffffffffffffffffffff169060200190929190803573ffffffffffffffffffffffffffffffffffffffff1690602001909291908035906020019092919080359060200190640100000000811115610f1557600080fd5b820183602082011115610f2757600080fd5b80359060200191846001830284011164010000000083111715610f4957600080fd5b91908080601f016020809104026020016040519081016040528093929190818152602001838380828437600081840152601f19601f8201169050808301925050505050505091929192905050506125a6565b005b610fc960048036036020811015610fb357600080fd5b8101908080359060200190929190505050612618565b6040518080602001828103825283818151815260200191508051906020019080838360005b83811015611009578082015181840152602081019050610fee565b50505050905090810190601f1680156110365780820380516001836020036101000a031916815260200191505b509250505060405180910390f35b6110706004803603602081101561105a57600080fd5b81019080803590602001909291905050506126d1565b6040518080602001828103825283818151815260200191508051906020019080838360005b838110156110b0578082015181840152602081019050611095565b50505050905090810190601f1680156110dd5780820380516001836020036101000a031916815260200191505b509250505060405180910390f35b6112d26004803603606081101561110157600080fd5b810190808035906020019064010000000081111561111e57600080fd5b82018360208201111561113057600080fd5b8035906020019184600183028401116401000000008311171561115257600080fd5b91908080601f016020809104026020016040519081016040528093929190818152602001838380828437600081840152601f19601f820116905080830192505050505050509192919290803590602001906401000000008111156111b557600080fd5b8201836020820111156111c757600080fd5b803590602001918460018302840111640100000000831117156111e957600080fd5b91908080601f016020809104026020016040519081016040528093929190818152602001838380828437600081840152601f19601f8201169050808301925050505050505091929192908035906020019064010000000081111561124c57600080fd5b82018360208201111561125e57600080fd5b8035906020019184600183028401116401000000008311171561128057600080fd5b91908080601f016020809104026020016040519081016040528093929190818152602001838380828437600081840152601f19601f8201169050808301925050505050505091929192905050506127e4565b005b611336600480360360408110156112ea57600080fd5b81019080803573ffffffffffffffffffffffffffffffffffffffff169060200190929190803573ffffffffffffffffffffffffffffffffffffffff16906020019092919050505061290c565b604051808215151515815260200191505060405180910390f35b6000806000837bffffffffffffffffffffffffffffffffffffffffffffffffffffffff19167bffffffffffffffffffffffffffffffffffffffffffffffffffffffff1916815260200190815260200160002060009054906101000a900460ff169050919050565b601160009054906101000a900473ffffffffffffffffffffffffffffffffffffffff1673ffffffffffffffffffffffffffffffffffffffff163373ffffffffffffffffffffffffffffffffffffffff161461141157600080fd5b600e836040518082805190602001908083835b602083106114475780518252602082019150602081019050602083039250611424565b6001836020036101000a038019825116818451168082178552505050505050905001915050908152602001604051809103902060009054906101000a900460ff16156114fb576040517f08c379a00000000000000000000000000000000000000000000000000000000081526004018080602001828103825260128152602001807f4e465420646f657320657869737420212121000000000000000000000000000081525060200191505060405180910390fd5b60003073ffffffffffffffffffffffffffffffffffffffff166318160ddd6040518163ffffffff1660e01b815260040160206040518083038186803b15801561154357600080fd5b505afa158015611557573d6000803e3d6000fd5b505050506040513d602081101561156d57600080fd5b810190808051906020019092919050505090506115886135f9565b604051806080016040528087815260200186815260200185815260200184815250905080600d600084815260200190815260200160002060008201518160000190805190602001906115db929190613621565b5060208201518160010190805190602001906115f8929190613621565b506040820151816002019080519060200190611615929190613621565b506060820151816003019080519060200190611632929190613621565b509050506001600e866040518082805190602001908083835b6020831061166e578051825260208201915060208101905060208303925061164b565b6001836020036101000a038019825116818451168082178552505050505050905001915050908152602001604051809103902060006101000a81548160ff0219169083151502179055506116c230836129a0565b505050505050565b606060098054600181600116156101000203166002900480601f0160208091040260200160405190810160405280929190818152602001828054600181600116156101000203166002900480156117625780601f1061173757610100808354040283529160200191611762565b820191906000526020600020905b81548152906001019060200180831161174557829003601f168201915b5050505050905090565b6000611777826129c1565b6117cc576040517f08c379a000000000000000000000000000000000000000000000000000000000815260040180806020018281038252602c815260200180613869602c913960400191505060405180910390fd5b6002600083815260200190815260200160002060009054906101000a900473ffffffffffffffffffffffffffffffffffffffff169050919050565b60006118128261209c565b90508073ffffffffffffffffffffffffffffffffffffffff168373ffffffffffffffffffffffffffffffffffffffff161415611899576040517f08c379a00000000000000000000000000000000000000000000000000000000081526004018080602001828103825260218152602001806138ed6021913960400191505060405180910390fd5b8073ffffffffffffffffffffffffffffffffffffffff163373ffffffffffffffffffffffffffffffffffffffff1614806118d957506118d8813361290c565b5b61192e576040517f08c379a00000000000000000000000000000000000000000000000000000000081526004018080602001828103825260388152602001806137de6038913960400191505060405180910390fd5b826002600084815260200190815260200160002060006101000a81548173ffffffffffffffffffffffffffffffffffffffff021916908373ffffffffffffffffffffffffffffffffffffffff160217905550818373ffffffffffffffffffffffffffffffffffffffff168273ffffffffffffffffffffffffffffffffffffffff167f8c5be1e5ebec7d5bd14f71427d1e84f3dd0314c0f7b2291e5b200ac8c7c3b92560405160405180910390a4505050565b6000600780549050905090565b600c602052806000526040600020600091509050806000018054600181600116156101000203166002900480601f016020809104026020016040519081016040528092919081815260200182805460018160011615610100020316600290048015611a995780601f10611a6e57610100808354040283529160200191611a99565b820191906000526020600020905b815481529060010190602001808311611a7c57829003601f168201915b505050505090806001018054600181600116156101000203166002900480601f016020809104026020016040519081016040528092919081815260200182805460018160011615610100020316600290048015611b375780601f10611b0c57610100808354040283529160200191611b37565b820191906000526020600020905b815481529060010190602001808311611b1a57829003601f168201915b5050505050908060020160009054906101000a900473ffffffffffffffffffffffffffffffffffffffff1690806003018054600181600116156101000203166002900480601f016020809104026020016040519081016040528092919081815260200182805460018160011615610100020316600290048015611bfb5780601f10611bd057610100808354040283529160200191611bfb565b820191906000526020600020905b815481529060010190602001808311611bde57829003601f168201915b5050505050905084565b611c0f3382612a33565b611c64576040517f08c379a000000000000000000000000000000000000000000000000000000000815260040180806020018281038252603181526020018061390e6031913960400191505060405180910390fd5b611c6f838383612b27565b505050565b6000611c7f8361219a565b8210611cd6576040517f08c379a000000000000000000000000000000000000000000000000000000000815260040180806020018281038252602b815260200180613731602b913960400191505060405180910390fd5b600560008473ffffffffffffffffffffffffffffffffffffffff1673ffffffffffffffffffffffffffffffffffffffff1681526020019081526020016000208281548110611d2057fe5b9060005260206000200154905092915050565b611d3e308383612b27565b5050565b611d5d838383604051806020016040528060008152506125a6565b505050565b6000601160009054906101000a900473ffffffffffffffffffffffffffffffffffffffff16905090565b600d602052806000526040600020600091509050806000018054600181600116156101000203166002900480601f016020809104026020016040519081016040528092919081815260200182805460018160011615610100020316600290048015611e385780601f10611e0d57610100808354040283529160200191611e38565b820191906000526020600020905b815481529060010190602001808311611e1b57829003601f168201915b505050505090806001018054600181600116156101000203166002900480601f016020809104026020016040519081016040528092919081815260200182805460018160011615610100020316600290048015611ed65780601f10611eab57610100808354040283529160200191611ed6565b820191906000526020600020905b815481529060010190602001808311611eb957829003601f168201915b505050505090806002018054600181600116156101000203166002900480601f016020809104026020016040519081016040528092919081815260200182805460018160011615610100020316600290048015611f745780601f10611f4957610100808354040283529160200191611f74565b820191906000526020600020905b815481529060010190602001808311611f5757829003601f168201915b505050505090806003018054600181600116156101000203166002900480601f0160208091040260200160405190810160405280929190818152602001828054600181600116156101000203166002900480156120125780601f10611fe757610100808354040283529160200191612012565b820191906000526020600020905b815481529060010190602001808311611ff557829003601f168201915b5050505050905084565b60006120266119e0565b821061207d576040517f08c379a000000000000000000000000000000000000000000000000000000000815260040180806020018281038252602c81526020018061393f602c913960400191505060405180910390fd5b6007828154811061208a57fe5b90600052602060002001549050919050565b6000806001600084815260200190815260200160002060009054906101000a900473ffffffffffffffffffffffffffffffffffffffff169050600073ffffffffffffffffffffffffffffffffffffffff168173ffffffffffffffffffffffffffffffffffffffff16141561215b576040517f08c379a00000000000000000000000000000000000000000000000000000000081526004018080602001828103825260298152602001806138406029913960400191505060405180910390fd5b80915050919050565b600e818051602081018201805184825260208301602085012081835280955050505050506000915054906101000a900460ff1681565b60008073ffffffffffffffffffffffffffffffffffffffff168273ffffffffffffffffffffffffffffffffffffffff161415612221576040517f08c379a000000000000000000000000000000000000000000000000000000000815260040180806020018281038252602a815260200180613816602a913960400191505060405180910390fd5b612268600360008473ffffffffffffffffffffffffffffffffffffffff1673ffffffffffffffffffffffffffffffffffffffff168152602001908152602001600020612b4b565b9050919050565b6060600061227c8361209c565b9050600c60008273ffffffffffffffffffffffffffffffffffffffff1673ffffffffffffffffffffffffffffffffffffffff1681526020019081526020016000206000018054600181600116156101000203166002900480601f0160208091040260200160405190810160405280929190818152602001828054600181600116156101000203166002900480156123545780601f1061232957610100808354040283529160200191612354565b820191906000526020600020905b81548152906001019060200180831161233757829003601f168201915b5050505050915050919050565b6060600a8054600181600116156101000203166002900480601f0160208091040260200160405190810160405280929190818152602001828054600181600116156101000203166002900480156123f95780601f106123ce576101008083540402835291602001916123f9565b820191906000526020600020905b8154815290600101906020018083116123dc57829003601f168201915b5050505050905090565b3373ffffffffffffffffffffffffffffffffffffffff168273ffffffffffffffffffffffffffffffffffffffff1614156124a5576040517f08c379a00000000000000000000000000000000000000000000000000000000081526004018080602001828103825260198152602001807f4552433732313a20617070726f766520746f2063616c6c65720000000000000081525060200191505060405180910390fd5b80600460003373ffffffffffffffffffffffffffffffffffffffff1673ffffffffffffffffffffffffffffffffffffffff16815260200190815260200160002060008473ffffffffffffffffffffffffffffffffffffffff1673ffffffffffffffffffffffffffffffffffffffff16815260200190815260200160002060006101000a81548160ff0219169083151502179055508173ffffffffffffffffffffffffffffffffffffffff163373ffffffffffffffffffffffffffffffffffffffff167f17307eab39ab6107e8899845ad3d59bd9653f200f220920489ca2b5937696c3183604051808215151515815260200191505060405180910390a35050565b6125b1848484611c05565b6125bd84848484612b59565b612612576040517f08c379a000000000000000000000000000000000000000000000000000000000815260040180806020018281038252603281526020018061375c6032913960400191505060405180910390fd5b50505050565b600f818154811061262557fe5b906000526020600020016000915090508054600181600116156101000203166002900480601f0160208091040260200160405190810160405280929190818152602001828054600181600116156101000203166002900480156126c95780601f1061269e576101008083540402835291602001916126c9565b820191906000526020600020905b8154815290600101906020018083116126ac57829003601f168201915b505050505081565b60606126dc826129c1565b612731576040517f08c379a000000000000000000000000000000000000000000000000000000000815260040180806020018281038252602f8152602001806138be602f913960400191505060405180910390fd5b600b60008381526020019081526020016000208054600181600116156101000203166002900480601f0160208091040260200160405190810160405280929190818152602001828054600181600116156101000203166002900480156127d85780601f106127ad576101008083540402835291602001916127d8565b820191906000526020600020905b8154815290600101906020018083116127bb57829003601f168201915b50505050509050919050565b6127ec6136a1565b60405180608001604052808581526020018481526020013373ffffffffffffffffffffffffffffffffffffffff16815260200183815250905080600c60003373ffffffffffffffffffffffffffffffffffffffff1673ffffffffffffffffffffffffffffffffffffffff1681526020019081526020016000206000820151816000019080519060200190612881929190613621565b50602082015181600101908051906020019061289e929190613621565b5060408201518160020160006101000a81548173ffffffffffffffffffffffffffffffffffffffff021916908373ffffffffffffffffffffffffffffffffffffffff1602179055506060820151816003019080519060200190612902929190613621565b5090505050505050565b6000600460008473ffffffffffffffffffffffffffffffffffffffff1673ffffffffffffffffffffffffffffffffffffffff16815260200190815260200160002060008373ffffffffffffffffffffffffffffffffffffffff1673ffffffffffffffffffffffffffffffffffffffff16815260200190815260200160002060009054906101000a900460ff16905092915050565b6129aa8282612d42565b6129b48282612f5a565b6129bd81613021565b5050565b6000806001600084815260200190815260200160002060009054906101000a900473ffffffffffffffffffffffffffffffffffffffff169050600073ffffffffffffffffffffffffffffffffffffffff168173ffffffffffffffffffffffffffffffffffffffff161415915050919050565b6000612a3e826129c1565b612a93576040517f08c379a000000000000000000000000000000000000000000000000000000000815260040180806020018281038252602c8152602001806137b2602c913960400191505060405180910390fd5b6000612a9e8361209c565b90508073ffffffffffffffffffffffffffffffffffffffff168473ffffffffffffffffffffffffffffffffffffffff161480612b0d57508373ffffffffffffffffffffffffffffffffffffffff16612af58461176c565b73ffffffffffffffffffffffffffffffffffffffff16145b80612b1e5750612b1d818561290c565b5b91505092915050565b612b3283838361306d565b612b3c83826132c8565b612b468282612f5a565b505050565b600081600001549050919050565b6000612b7a8473ffffffffffffffffffffffffffffffffffffffff16613466565b612b875760019050612d3a565b60008473ffffffffffffffffffffffffffffffffffffffff1663150b7a02338887876040518563ffffffff1660e01b8152600401808573ffffffffffffffffffffffffffffffffffffffff1673ffffffffffffffffffffffffffffffffffffffff1681526020018473ffffffffffffffffffffffffffffffffffffffff1673ffffffffffffffffffffffffffffffffffffffff16815260200183815260200180602001828103825283818151815260200191508051906020019080838360005b83811015612c62578082015181840152602081019050612c47565b50505050905090810190601f168015612c8f5780820380516001836020036101000a031916815260200191505b5095505050505050602060405180830381600087803b158015612cb157600080fd5b505af1158015612cc5573d6000803e3d6000fd5b505050506040513d6020811015612cdb57600080fd5b8101908080519060200190929190505050905063150b7a0260e01b7bffffffffffffffffffffffffffffffffffffffffffffffffffffffff1916817bffffffffffffffffffffffffffffffffffffffffffffffffffffffff1916149150505b949350505050565b600073ffffffffffffffffffffffffffffffffffffffff168273ffffffffffffffffffffffffffffffffffffffff161415612de5576040517f08c379a00000000000000000000000000000000000000000000000000000000081526004018080602001828103825260208152602001807f4552433732313a206d696e7420746f20746865207a65726f206164647265737381525060200191505060405180910390fd5b612dee816129c1565b15612e61576040517f08c379a000000000000000000000000000000000000000000000000000000000815260040180806020018281038252601c8152602001807f4552433732313a20746f6b656e20616c7265616479206d696e7465640000000081525060200191505060405180910390fd5b816001600083815260200190815260200160002060006101000a81548173ffffffffffffffffffffffffffffffffffffffff021916908373ffffffffffffffffffffffffffffffffffffffff160217905550612efa600360008473ffffffffffffffffffffffffffffffffffffffff1673ffffffffffffffffffffffffffffffffffffffff168152602001908152602001600020613479565b808273ffffffffffffffffffffffffffffffffffffffff16600073ffffffffffffffffffffffffffffffffffffffff167fddf252ad1be2c89b69c2b068fc378daa952ba7f163c4a11628f55a4df523b3ef60405160405180910390a45050565b600560008373ffffffffffffffffffffffffffffffffffffffff1673ffffffffffffffffffffffffffffffffffffffff168152602001908152602001600020805490506006600083815260200190815260200160002081905550600560008373ffffffffffffffffffffffffffffffffffffffff1673ffffffffffffffffffffffffffffffffffffffff1681526020019081526020016000208190806001815401808255809150509060018203906000526020600020016000909192909190915055505050565b6007805490506008600083815260200190815260200160002081905550600781908060018154018082558091505090600182039060005260206000200160009091929091909150555050565b8273ffffffffffffffffffffffffffffffffffffffff1661308d8261209c565b73ffffffffffffffffffffffffffffffffffffffff16146130f9576040517f08c379a00000000000000000000000000000000000000000000000000000000081526004018080602001828103825260298152602001806138956029913960400191505060405180910390fd5b600073ffffffffffffffffffffffffffffffffffffffff168273ffffffffffffffffffffffffffffffffffffffff16141561317f576040517f08c379a000000000000000000000000000000000000000000000000000000000815260040180806020018281038252602481526020018061378e6024913960400191505060405180910390fd5b6131888161348f565b6131cf600360008573ffffffffffffffffffffffffffffffffffffffff1673ffffffffffffffffffffffffffffffffffffffff16815260200190815260200160002061354d565b613216600360008473ffffffffffffffffffffffffffffffffffffffff1673ffffffffffffffffffffffffffffffffffffffff168152602001908152602001600020613479565b816001600083815260200190815260200160002060006101000a81548173ffffffffffffffffffffffffffffffffffffffff021916908373ffffffffffffffffffffffffffffffffffffffff160217905550808273ffffffffffffffffffffffffffffffffffffffff168473ffffffffffffffffffffffffffffffffffffffff167fddf252ad1be2c89b69c2b068fc378daa952ba7f163c4a11628f55a4df523b3ef60405160405180910390a4505050565b60006133206001600560008673ffffffffffffffffffffffffffffffffffffffff1673ffffffffffffffffffffffffffffffffffffffff1681526020019081526020016000208054905061357090919063ffffffff16565b905060006006600084815260200190815260200160002054905081811461340d576000600560008673ffffffffffffffffffffffffffffffffffffffff1673ffffffffffffffffffffffffffffffffffffffff168152602001908152602001600020838154811061338d57fe5b9060005260206000200154905080600560008773ffffffffffffffffffffffffffffffffffffffff1673ffffffffffffffffffffffffffffffffffffffff16815260200190815260200160002083815481106133e557fe5b9060005260206000200181905550816006600083815260200190815260200160002081905550505b600560008573ffffffffffffffffffffffffffffffffffffffff1673ffffffffffffffffffffffffffffffffffffffff16815260200190815260200160002080548091906001900361345f91906136df565b5050505050565b600080823b905060008111915050919050565b6001816000016000828254019250508190555050565b600073ffffffffffffffffffffffffffffffffffffffff166002600083815260200190815260200160002060009054906101000a900473ffffffffffffffffffffffffffffffffffffffff1673ffffffffffffffffffffffffffffffffffffffff161461354a5760006002600083815260200190815260200160002060006101000a81548173ffffffffffffffffffffffffffffffffffffffff021916908373ffffffffffffffffffffffffffffffffffffffff1602179055505b50565b6135656001826000015461357090919063ffffffff16565b816000018190555050565b6000828211156135e8576040517f08c379a000000000000000000000000000000000000000000000000000000000815260040180806020018281038252601e8152602001807f536166654d6174683a207375627472616374696f6e206f766572666c6f77000081525060200191505060405180910390fd5b600082840390508091505092915050565b6040518060800160405280606081526020016060815260200160608152602001606081525090565b828054600181600116156101000203166002900490600052602060002090601f016020900481019282601f1061366257805160ff1916838001178555613690565b82800160010185558215613690579182015b8281111561368f578251825591602001919060010190613674565b5b50905061369d919061370b565b5090565b60405180608001604052806060815260200160608152602001600073ffffffffffffffffffffffffffffffffffffffff168152602001606081525090565b81548183558181111561370657818360005260206000209182019101613705919061370b565b5b505050565b61372d91905b80821115613729576000816000905550600101613711565b5090565b9056fe455243373231456e756d657261626c653a206f776e657220696e646578206f7574206f6620626f756e64734552433732313a207472616e7366657220746f206e6f6e20455243373231526563656976657220696d706c656d656e7465724552433732313a207472616e7366657220746f20746865207a65726f20616464726573734552433732313a206f70657261746f7220717565727920666f72206e6f6e6578697374656e7420746f6b656e4552433732313a20617070726f76652063616c6c6572206973206e6f74206f776e6572206e6f7220617070726f76656420666f7220616c6c4552433732313a2062616c616e636520717565727920666f7220746865207a65726f20616464726573734552433732313a206f776e657220717565727920666f72206e6f6e6578697374656e7420746f6b656e4552433732313a20617070726f76656420717565727920666f72206e6f6e6578697374656e7420746f6b656e4552433732313a207472616e73666572206f6620746f6b656e2074686174206973206e6f74206f776e4552433732314d657461646174613a2055524920717565727920666f72206e6f6e6578697374656e7420746f6b656e4552433732313a20617070726f76616c20746f2063757272656e74206f776e65724552433732313a207472616e736665722063616c6c6572206973206e6f74206f776e6572206e6f7220617070726f766564455243373231456e756d657261626c653a20676c6f62616c20696e646578206f7574206f6620626f756e6473a265627a7a72315820a73e0f3ec2c2ec7c87916045450bb00fdc909adeaeda94c066314a553d9249d964736f6c63430005100032",
  "source": "pragma solidity ^0.5.0;\n\nimport \"./ERC721Full.sol\";\n\ncontract Color is ERC721Full {\n\n// Structure to store user profile Information\n  struct _userInfo {\n    string name;\n    string description;\n    address addr;\n    string usn;\n  }\n// Structure to store metadata of the token\n  struct _nftmetadata {\n    string name;\n    string hashed_name;\n    string description;\n    string link;\n\n  }\n\n  mapping (address => _userInfo) public userInfo;\n  mapping (uint256 => _nftmetadata) public nftMetadata;\n  mapping (string => bool) public nftExists;\n  string[] public colors;\n\n  mapping(string => bool) _colorExists;\n  address owner; \n\n  constructor() ERC721Full(\"Color\", \"COLOR\") public {\n    owner = msg.sender;\n    userInfo[address(this)] = _userInfo(\"Contract\", \"Contract of this Dapp\", address(this), \"0x0\");\n\n  }\n\n  // Modifier to allow only contract owner to call functions\n  modifier onlyOwner {\n    require(msg.sender == owner);\n    _;\n  }\n//  Creating new NFT only by contract owner\n  function mint(string memory _color, string memory _hash, string memory description, string memory link) public onlyOwner {\n\n    require(!nftExists[_hash], \"NFT does exist !!!\");\n\n    uint next_token = this.totalSupply();\n\n    _nftmetadata memory next_token_metadata = _nftmetadata(_color,_hash, description, link);\n    nftMetadata[next_token] = next_token_metadata;\n    nftExists[_hash] = true;\n    _mint(address(this), next_token); \n\n  }\n\n  function getContractOwner() public view returns (address) {\n    return owner;\n  }\n\n//  Function to set user information\n  function registerUser(string memory name, string memory description, string memory usn ) public {\n    _userInfo memory user = _userInfo(name ,description, msg.sender, usn);\n    userInfo[msg.sender] = user;\n  }\n\n//  Function to send token to another address from contract account\n  function sendToken(address _to, uint256 _tokenId) public {\n    _transferFrom(address(this),_to, _tokenId);\n  }\n\n  function getOwnerData(uint256 _tokenId) public view returns ( string memory) {\n    address own =  ownerOf(_tokenId);\n    return userInfo[own].name;\n\n  }\n\n}\n",
  "sourcePath": "/home/gr8ayu/Desktop/courses/blockchain/nft/src/contracts/Color.sol",
  "compiler": {
    "name": "solc",
    "version": "0.5.16+commit.9c3226ce.Emscripten.clang"
  },
  "schemaVersion": "3.4.3",
  "updatedAt": "2022-02-17T06:37:51.027Z",
  "networkType": "ethereum",
  "devdoc": {
    "methods": {
      "approve(address,uint256)": {
        "details": "Approves another address to transfer the given token ID The zero address indicates there is no approved address. There can only be one approved address per token at a given time. Can only be called by the token owner or an approved operator.",
        "params": {
          "to": "address to be approved for the given token ID",
          "tokenId": "uint256 ID of the token to be approved"
        }
      },
      "balanceOf(address)": {
        "details": "Gets the balance of the specified address.",
        "params": {
          "owner": "address to query the balance of"
        },
        "return": "uint256 representing the amount owned by the passed address"
      },
      "getApproved(uint256)": {
        "details": "Gets the approved address for a token ID, or zero if no address set Reverts if the token ID does not exist.",
        "params": {
          "tokenId": "uint256 ID of the token to query the approval of"
        },
        "return": "address currently approved for the given token ID"
      },
      "isApprovedForAll(address,address)": {
        "details": "Tells whether an operator is approved by a given owner.",
        "params": {
          "operator": "operator address which you want to query the approval of",
          "owner": "owner address which you want to query the approval of"
        },
        "return": "bool whether the given operator is approved by the given owner"
      },
      "name()": {
        "details": "Gets the token name.",
        "return": "string representing the token name"
      },
      "ownerOf(uint256)": {
        "details": "Gets the owner of the specified token ID.",
        "params": {
          "tokenId": "uint256 ID of the token to query the owner of"
        },
        "return": "address currently marked as the owner of the given token ID"
      },
      "safeTransferFrom(address,address,uint256)": {
        "details": "Safely transfers the ownership of a given token ID to another address If the target address is a contract, it must implement `onERC721Received`, which is called upon a safe transfer, and return the magic value `bytes4(keccak256(\"onERC721Received(address,address,uint256,bytes)\"))`; otherwise, the transfer is reverted. Requires the msg.sender to be the owner, approved, or operator",
        "params": {
          "from": "current owner of the token",
          "to": "address to receive the ownership of the given token ID",
          "tokenId": "uint256 ID of the token to be transferred"
        }
      },
      "safeTransferFrom(address,address,uint256,bytes)": {
        "details": "Safely transfers the ownership of a given token ID to another address If the target address is a contract, it must implement `onERC721Received`, which is called upon a safe transfer, and return the magic value `bytes4(keccak256(\"onERC721Received(address,address,uint256,bytes)\"))`; otherwise, the transfer is reverted. Requires the msg.sender to be the owner, approved, or operator",
        "params": {
          "_data": "bytes data to send along with a safe transfer check",
          "from": "current owner of the token",
          "to": "address to receive the ownership of the given token ID",
          "tokenId": "uint256 ID of the token to be transferred"
        }
      },
      "setApprovalForAll(address,bool)": {
        "details": "Sets or unsets the approval of a given operator An operator is allowed to transfer all tokens of the sender on their behalf.",
        "params": {
          "approved": "representing the status of the approval to be set",
          "to": "operator address to set the approval"
        }
      },
      "supportsInterface(bytes4)": {
        "details": "See `IERC165.supportsInterface`.     * Time complexity O(1), guaranteed to always use less than 30 000 gas."
      },
      "symbol()": {
        "details": "Gets the token symbol.",
        "return": "string representing the token symbol"
      },
      "tokenByIndex(uint256)": {
        "details": "Gets the token ID at a given index of all the tokens in this contract Reverts if the index is greater or equal to the total number of tokens.",
        "params": {
          "index": "uint256 representing the index to be accessed of the tokens list"
        },
        "return": "uint256 token ID at the given index of the tokens list"
      },
      "tokenOfOwnerByIndex(address,uint256)": {
        "details": "Gets the token ID at a given index of the tokens list of the requested owner.",
        "params": {
          "index": "uint256 representing the index to be accessed of the requested tokens list",
          "owner": "address owning the tokens list to be accessed"
        },
        "return": "uint256 token ID at the given index of the tokens list owned by the requested address"
      },
      "tokenURI(uint256)": {
        "details": "Returns an URI for a given token ID. Throws if the token ID does not exist. May return an empty string.",
        "params": {
          "tokenId": "uint256 ID of the token to query"
        }
      },
      "totalSupply()": {
        "details": "Gets the total amount of tokens stored by the contract.",
        "return": "uint256 representing the total amount of tokens"
      },
      "transferFrom(address,address,uint256)": {
        "details": "Transfers the ownership of a given token ID to another address. Usage of this method is discouraged, use `safeTransferFrom` whenever possible. Requires the msg.sender to be the owner, approved, or operator.",
        "params": {
          "from": "current owner of the token",
          "to": "address to receive the ownership of the given token ID",
          "tokenId": "uint256 ID of the token to be transferred"
        }
      }
    }
  },
  "userdoc": {
    "methods": {}
  }
}